{
  "transactions": [
    {
      "hash": "0x96fac4169efeb54a68d59e716017c3fd20a10511a4892cd64926306b17c9b399",
      "transactionType": "CALL",
      "contractName": null,
      "contractAddress": "0x779877a7b0d9e8603169ddbd7836e478b4624789",
      "function": "transferAndCall(address,uint256,bytes)",
      "arguments": [
        "0x9DdfaCa8183c41ad55329BdeeD9F6A8d53168B1B",
        "3000000000000000000",
        "0x39ffd27a8d68c3d677073bb8a0de7c4abb99d4a80dce509ce50ce7853be88142"
      ],
      "transaction": {
        "from": "0x4cf6a67a7d59e153694e78fe6df951d3091bfc36",
        "to": "0x779877a7b0d9e8603169ddbd7836e478b4624789",
        "gas": "0x14cbb",
        "value": "0x0",
        "input": "0x4000aea00000000000000000000000009ddfaca8183c41ad55329bdeed9f6a8d53168b1b00000000000000000000000000000000000000000000000029a2241af62c00000000000000000000000000000000000000000000000000000000000000000060000000000000000000000000000000000000000000000000000000000000002039ffd27a8d68c3d677073bb8a0de7c4abb99d4a80dce509ce50ce7853be88142",
        "nonce": "0x36",
        "chainId": "0xaa36a7"
      },
      "additionalContracts": [],
      "isFixedGasLimit": false
    }
  ],
  "receipts": [
    {
      "status": "0x1",
      "cumulativeGasUsed": "0x1d0b35a",
      "logs": [
        {
          "address": "0x779877a7b0d9e8603169ddbd7836e478b4624789",
          "topics": [
            "0xddf252ad1be2c89b69c2b068fc378daa952ba7f163c4a11628f55a4df523b3ef",
            "0x0000000000000000000000004cf6a67a7d59e153694e78fe6df951d3091bfc36",
            "0x0000000000000000000000009ddfaca8183c41ad55329bdeed9f6a8d53168b1b"
          ],
          "data": "0x00000000000000000000000000000000000000000000000029a2241af62c0000",
          "blockHash": "0x71cddfd940ebf0a0f4d3d74d7a359044debbf76faa23a636d0dfeb8ff8ca97ab",
          "blockNumber": "0xa1c8a3",
          "blockTimestamp": "0x69d3b8b8",
          "transactionHash": "0x96fac4169efeb54a68d59e716017c3fd20a10511a4892cd64926306b17c9b399",
          "transactionIndex": "0x8d",
          "logIndex": "0x3ea",
          "removed": false
        },
        {
          "address": "0x779877a7b0d9e8603169ddbd7836e478b4624789",
          "topics": [
            "0xe19260aff97b920c7df27010903aeb9c8d2be5d310a2c67824cf3f15396e4c16",
            "0x0000000000000000000000004cf6a67a7d59e153694e78fe6df951d3091bfc36",
            "0x0000000000000000000000009ddfaca8183c41ad55329bdeed9f6a8d53168b1b"
          ],
          "data": "0x00000000000000000000000000000000000000000000000029a2241af62c00000000000000000000000000000000000000000000000000000000000000000040000000000000000000000000000000000000000000000000000000000000002039ffd27a8d68c3d677073bb8a0de7c4abb99d4a80dce509ce50ce7853be88142",
          "blockHash": "0x71cddfd940ebf0a0f4d3d74d7a359044debbf76faa23a636d0dfeb8ff8ca97ab",
          "blockNumber": "0xa1c8a3",
          "blockTimestamp": "0x69d3b8b8",
          "transactionHash": "0x96fac4169efeb54a68d59e716017c3fd20a10511a4892cd64926306b17c9b399",
          "transactionIndex": "0x8d",
          "logIndex": "0x3eb",
          "removed": false
        },
        {
          "address": "0x9ddfaca8183c41ad55329bdeed9f6a8d53168b1b",
          "topics": [
            "0x1ced9348ff549fceab2ac57cd3a9de38edaaab274b725ee82c23e8fc8c4eec7a",
            "0x39ffd27a8d68c3d677073bb8a0de7c4abb99d4a80dce509ce50ce7853be88142"
          ],
          "data": "0x0000000000000000000000000000000000000000000000015af1d78b58c400000000000000000000000000000000000000000000000000018493fba64ef00000",
          "blockHash": "0x71cddfd940ebf0a0f4d3d74d7a359044debbf76faa23a636d0dfeb8ff8ca97ab",
          "blockNumber": "0xa1c8a3",
          "blockTimestamp": "0x69d3b8b8",
          "transactionHash": "0x96fac4169efeb54a68d59e716017c3fd20a10511a4892cd64926306b17c9b399",
          "transactionIndex": "0x8d",
          "logIndex": "0x3ec",
          "removed": false
        }
      ],
      "logsBloom": "0x00000004020000000000000000000000000000000020000000000000020000000000000000000000000000000000000000000000000000000000000000000000000000000000000200000008200000000000000000000000000020000020000008000000000000000000000000000000000000000800000000000010000040000000000000000000000000010000800000000020000000000000000000000000000000000000800000000000010000000000000000000000000004000000000000000002000000000000000000000000000000000000000100000000000000000010000010000000800000000000000000000000000000000000000000000000",
      "type": "0x2",
      "transactionHash": "0x96fac4169efeb54a68d59e716017c3fd20a10511a4892cd64926306b17c9b399",
      "transactionIndex": "0x8d",
      "blockHash": "0x71cddfd940ebf0a0f4d3d74d7a359044debbf76faa23a636d0dfeb8ff8ca97ab",
      "blockNumber": "0xa1c8a3",
      "gasUsed": "0xf0e5",
      "effectiveGasPrice": "0xe5173fa8",
      "from": "0x4cf6a67a7d59e153694e78fe6df951d3091bfc36",
      "to": "0x779877a7b0d9e8603169ddbd7836e478b4624789",
      "contractAddress": null
    }
  ],
  "libraries": [],
  "pending": [],
  "returns": {},
  "timestamp": 1775483066901,
  "chain": 11155111,
  "commit": null
}